:0300000002089E55
:0C089E00787FE4F6D8FD758107020800A1
:10086D00C281D2827FE87E03120880D281C2827F4C
:03087D00E87E030F
:10088000D3EF9400EE940040147D647C00ED1D7065
:0D089000011CED4C70F7EF1F70E61E80E3B9
:01089D002238
:10080000E4FBD280C28320A0187F147E00120880EF
:1008100020A00BEB70047F0180027F00AB0730A0AB
:10082000FDEB7012D280C28320A30512086D80D622
:10083000D281D28280D0BB01CDC280D28320A10DD3
:1008400030A20A12086DD281D28212087C20A10641
:1008500020A20312086D30A10730A204D281D282F7
:0D08600030A1A320A2A0D281D282020806FE
:00000001FF
